:030000000208A251
:0C08A200787FE4F6D8FD7581200208E99B
:10092E0020202020202020200020202020200049D0
:10093E00444C4500435420005359200044452000A8
:10094E00514B20004C004D00480046494C4C00577E
:10095E0041534800445241494E0052494E534500BE
:10096E005350494E00444F4E450053544F50005083
:10097E004155534500574149540052454144590091
:10098E0000320064009602580190012C00C800C885
:10099E0000C800960096012C00FA00C8009601F4DB
:0A09AE000190012C00FA030202017F
:100E2200020D0000C100010C00010800010B0101CC
:050E32000900010A00A7
:040DC1007F147E001D
:100DC500E4FDFCC3ED9FEC9E5015E4FBFA0BBB0064
:0F0DD500010AEB64784A70F50DBD00010C80E453
:010DE40022EC
:0C0E4B00D2A17F017E00120DC5C2A122C1
:070E6300C2A08F80020E4BBC
:070E6A00D2A08F80020E4BA5
:100D77008B128A138914AB12AA13A914120A3760AB
:100D8700130514E5147002051314F9120A37FF123C
:050D97000E6A80E2225B
:0C0E57007F01120E637F027E00020DC5B9
:040E3800E4FD7F0155
:0F0E3C00EF60047FC080027F80EF2DFF020E6306
:100E09007F1E7E00120DC57F38120E637F0C120EF5
:090E1900637F06120E63020E57FE
:03000B00020CF2F2
:100CF200C0E0C0F0C0D075D000C000C004C005C0C4
:100D020006C007758C4B758AFDE50C640760080503
:100D12000EE50E7002050DAE0DAF0E7C007D0A12BF
:100D22000A50ED4C7002B200D007D006D005D004B4
:090D3200D000D0D0D0F0D0E032A6
:040E7100E4F59022F2
:060DE5007BFF7A09795D35
:100DEB008B0F8A108911E4FDFF120E3CAB0FAA107A
:0E0DFB00A911120D777BFF7A09792E020D7770
:090AA500F583E493FE740193FF54
:100AAE00C3E50E9FE50D9E4007E4F50FF51080148B
:100ABE00C3EF950EFFEE950DFE7C007D14120A50CD
:100ACE008E0F8F10120E38AE0FAF107C007D0A12F3
:100ADE000A50EF2430FF120E6AAE0FAF107C007D6D
:100AEE000A120A50ED2430FF120E6A7F73120E6A3C
:090AFE007BFF7A097937020D77BC
:100B0700120E717BFF7A09793D120DEB120E38E553
:100B17000870087BFF7A097942801EE508B401084E
:100B27007BFF7A0979468011E5087BFFB402067AD4
:100B370009794A80047A09794E120D77E50B700816
:100B47007BFF7A0979528011E50B7BFFB401067AA6
:0D0B570009795480047A097956120D77222D
:100C5E00C291C292C293D290D2967BFF7A097958F2
:100C6E00120DEBE50B25E0248EF582E43409120A11
:100C7E00A5E50B25E0248EF582E43409F583D374C3
:100C8E000193950EE493950D500FE4F50DF50EC2FC
:0A0C9E0096C290750C02120E572248
:100C1100C290C292C293D291E50E30E303D3800118
:100C2100C39295120DE5E50825E02494F582E4349C
:100C310009120AA5E50825E02494F582E43409F5B2
:100C410083D3740193950EE493950D500FE4F50D44
:0D0C5100F50EC291C295750C03120E5722CC
:100B6400C290C291C292C293D2967BFF7A097962F3
:100B7400120DEBE50825E0249CF582E43409120A01
:100B8400A5E50825E0249CF582E43409F583D374B3
:100B94000193950EE493950D5022E4F50DF50EC2E4
:100BA40096E5089009B493FFE509C39F5005750CB9
:0D0BB400048006E4F509750C05120E5722A9
:100BC100C290C291C293D292D296D2957BFF7A09FA
:100BD1007968120DEBE50825E024A4F582E43409D7
:100BE100120AA5E50825E024A4F582E43409F58379
:100BF100D3740193950EE493950D5013E4F50DF51F
:100C01000EC292C296C2950509750C03120E5722A7
:100CA800C290C291C292D293D2957BFF7A09796E93
:100CB800120DEBE50825E024ACF582E43409120AAC
:100CC800A5E50825E024ACF582E43409F583D3745E
:100CD8000193950EE493950D500FE4F50DF50EC2B2
:0A0CE80093C295750C06120E5722F8
:100D9C00C290C291C292C293A2009294A200929766
:100DAC007BFF7A097973120DEB120E387BFF7A09EF
:050DBC007978020D77BB
:100D3B00120E71E50AB40104A2009290E50AB40206
:100D4B0004A2009291E50AB40404A2009292E50A6F
:100D5B00B40504A20092937BFF7A09797D120DEB07
:0C0D6B00120E387BFF7A097983020D77A5
:1008000020B034120DC120B02EE50C700BF509F5A7
:100810000DF50E750C018019E50CD394004015E51B
:100820000C9407500FE4F50CF509F50DF50E120EBA
:1008300071120E5730B0FD20B129120DC120B12028
:10084000E50CB40705850A0C8013E50CD394004031
:100850000CE50C94065006850C0A750C07120E5711
:1008600030B1FD20B21C120DC120B213E50C700F87
:100870000508E508D394034003E4F508120E573049
:10088000B2FD20B31C120DC120B313E50C700F058F
:100890000BE50BD394024003E4F50B120E5730B373
:0208A000FD2237
:1009B800120E71758911758C4B758AFDD2A9D2AF4B
:1009C800D28C120E09120DE5120E387BFF7A0979C6
:1009D80088120D777FE87E03120DC5120E57120894
:1009E80000E50CB4080050F69009F7F828287302BF
:1009F8000A0F020A14020A19020A1E020A23020A2C
:100A080028020A2D020A32120B0780D2120C5E80CD
:100A1800CD120C1180C8120B6480C3120BC180BEAA
:0F0A2800120CA880B9120D9C80B4120D3B80AF48
:1008AE000209B8E493A3F8E493A34003F68001F29F
:1008BE0008DFF48029E493A3F85407240CC8C3334B
:1008CE00C4540F4420C8834004F456800146F6DF1A
:1008DE00E4800B0102040810204080900E22E47E7A
:1008EE00019360BCA3FF543F30E509541FFEE4930F
:1008FE00A360010ECF54C025E060A840B8E493A3D6
:10090E00FAE493A3F8E493A3C8C582C8CAC583CA00
:10091E00F0A3C8C582C8CAC583CADFE9DEE780BEB8
:010E370000BA
:100A3700BB010689828A83E0225002E722BBFE02BD
:090A4700E32289828A83E49322F0
:100A5000BC000BBE0029EF8DF084FFADF022E4CC8A
:100A6000F875F008EF2FFFEE33FEEC33FCEE9DEC53
:100A7000984005FCEE9DFE0FD5F0E9E4CEFD22ED99
:100A8000F8F5F0EE8420D21CFEADF075F008EF2FE3
:100A9000FFED33FD4007985006D5F0F222C398FDD4
:050AA0000FD5F0EA2271
:00000001FF
